{
  "_format": "hh-sol-artifact-1",
  "contractName": "FolioViewNFT",
  "sourceName": "contracts/FolioViewNFT.sol",
  "abi": [
    {
      "inputs": [],
      "stateMutability": "nonpayable",
      "type": "constructor"
    },
    {
      "anonymous": false,
      "inputs": [
        {
          "indexed": true,
          "internalType": "address",
          "name": "owner",
          "type": "address"
        },
        {
          "indexed": true,
          "internalType": "address",
          "name": "approved",
          "type": "address"
        },
        {
          "indexed": true,
          "internalType": "uint256",
          "name": "tokenId",
          "type": "uint256"
        }
      ],
      "name": "Approval",
      "type": "event"
    },
    {
      "anonymous": false,
      "inputs": [
        {
          "indexed": true,
          "internalType": "address",
          "name": "owner",
          "type": "address"
        },
        {
          "indexed": true,
          "internalType": "address",
          "name": "operator",
          "type": "address"
        },
        {
          "indexed": false,
          "internalType": "bool",
          "name": "approved",
          "type": "bool"
        }
      ],
      "name": "ApprovalForAll",
      "type": "event"
    },
    {
      "anonymous": false,
      "inputs": [
        {
          "indexed": true,
          "internalType": "address",
          "name": "from",
          "type": "address"
        },
        {
          "indexed": true,
          "internalType": "address",
          "name": "to",
          "type": "address"
        },
        {
          "indexed": true,
          "internalType": "uint256",
          "name": "tokenId",
          "type": "uint256"
        }
      ],
      "name": "Transfer",
      "type": "event"
    },
    {
      "inputs": [
        {
          "internalType": "address",
          "name": "to",
          "type": "address"
        },
        {
          "internalType": "uint256",
          "name": "tokenId",
          "type": "uint256"
        }
      ],
      "name": "approve",
      "outputs": [],
      "stateMutability": "nonpayable",
      "type": "function"
    },
    {
      "inputs": [
        {
          "internalType": "address",
          "name": "owner",
          "type": "address"
        }
      ],
      "name": "balanceOf",
      "outputs": [
        {
          "internalType": "uint256",
          "name": "",
          "type": "uint256"
        }
      ],
      "stateMutability": "view",
      "type": "function"
    },
    {
      "inputs": [
        {
          "internalType": "uint256",
          "name": "tokenId",
          "type": "uint256"
        }
      ],
      "name": "getApproved",
      "outputs": [
        {
          "internalType": "address",
          "name": "",
          "type": "address"
        }
      ],
      "stateMutability": "view",
      "type": "function"
    },
    {
      "inputs": [
        {
          "internalType": "address",
          "name": "owner",
          "type": "address"
        },
        {
          "internalType": "address",
          "name": "operator",
          "type": "address"
        }
      ],
      "name": "isApprovedForAll",
      "outputs": [
        {
          "internalType": "bool",
          "name": "",
          "type": "bool"
        }
      ],
      "stateMutability": "view",
      "type": "function"
    },
    {
      "inputs": [
        {
          "internalType": "uint256",
          "name": "tokenId",
          "type": "uint256"
        }
      ],
      "name": "mintNFT",
      "outputs": [],
      "stateMutability": "nonpayable",
      "type": "function"
    },
    {
      "inputs": [],
      "name": "name",
      "outputs": [
        {
          "internalType": "string",
          "name": "",
          "type": "string"
        }
      ],
      "stateMutability": "view",
      "type": "function"
    },
    {
      "inputs": [
        {
          "internalType": "uint256",
          "name": "tokenId",
          "type": "uint256"
        }
      ],
      "name": "ownerOf",
      "outputs": [
        {
          "internalType": "address",
          "name": "",
          "type": "address"
        }
      ],
      "stateMutability": "view",
      "type": "function"
    },
    {
      "inputs": [
        {
          "internalType": "address",
          "name": "from",
          "type": "address"
        },
        {
          "internalType": "address",
          "name": "to",
          "type": "address"
        },
        {
          "internalType": "uint256",
          "name": "tokenId",
          "type": "uint256"
        }
      ],
      "name": "safeTransferFrom",
      "outputs": [],
      "stateMutability": "nonpayable",
      "type": "function"
    },
    {
      "inputs": [
        {
          "internalType": "address",
          "name": "from",
          "type": "address"
        },
        {
          "internalType": "address",
          "name": "to",
          "type": "address"
        },
        {
          "internalType": "uint256",
          "name": "tokenId",
          "type": "uint256"
        },
        {
          "internalType": "bytes",
          "name": "data",
          "type": "bytes"
        }
      ],
      "name": "safeTransferFrom",
      "outputs": [],
      "stateMutability": "nonpayable",
      "type": "function"
    },
    {
      "inputs": [
        {
          "internalType": "address",
          "name": "operator",
          "type": "address"
        },
        {
          "internalType": "bool",
          "name": "approved",
          "type": "bool"
        }
      ],
      "name": "setApprovalForAll",
      "outputs": [],
      "stateMutability": "nonpayable",
      "type": "function"
    },
    {
      "inputs": [
        {
          "internalType": "bytes4",
          "name": "interfaceId",
          "type": "bytes4"
        }
      ],
      "name": "supportsInterface",
      "outputs": [
        {
          "internalType": "bool",
          "name": "",
          "type": "bool"
        }
      ],
      "stateMutability": "view",
      "type": "function"
    },
    {
      "inputs": [],
      "name": "symbol",
      "outputs": [
        {
          "internalType": "string",
          "name": "",
          "type": "string"
        }
      ],
      "stateMutability": "view",
      "type": "function"
    },
    {
      "inputs": [
        {
          "internalType": "uint256",
          "name": "tokenId",
          "type": "uint256"
        }
      ],
      "name": "tokenURI",
      "outputs": [
        {
          "internalType": "string",
          "name": "",
          "type": "string"
        }
      ],
      "stateMutability": "view",
      "type": "function"
    },
    {
      "inputs": [
        {
          "internalType": "address",
          "name": "from",
          "type": "address"
        },
        {
          "internalType": "address",
          "name": "to",
          "type": "address"
        },
        {
          "internalType": "uint256",
          "name": "tokenId",
          "type": "uint256"
        }
      ],
      "name": "transferFrom",
      "outputs": [],
      "stateMutability": "nonpayable",
      "type": "function"
    }
  ],
  "bytecode": "0x60806040523480156200001157600080fd5b506040518060400160405280600c81526020017f466f6c696f566965774e465400000000000000000000000000000000000000008152506040518060400160405280600981526020017f464f4c494f56494557000000000000000000000000000000000000000000000081525081600090816200008f91906200043b565b508060019081620000a191906200043b565b505050620000ef6040518060400160405280601e81526020017f54686973206973206d79204e465420636f6e74726163742e20576f6168210000815250620000f560201b62000a4d1760201c565b620005d5565b62000195816040516024016200010c9190620005b1565b6040516020818303038152906040527f41304fac000000000000000000000000000000000000000000000000000000007bffffffffffffffffffffffffffffffffffffffffffffffffffffffff19166020820180517bffffffffffffffffffffffffffffffffffffffffffffffffffffffff83818316178352505050506200019860201b60201c565b50565b60008151905060006a636f6e736f6c652e6c6f679050602083016000808483855afa5050505050565b600081519050919050565b7f4e487b7100000000000000000000000000000000000000000000000000000000600052604160045260246000fd5b7f4e487b7100000000000000000000000000000000000000000000000000000000600052602260045260246000fd5b600060028204905060018216806200024357607f821691505b602082108103620002595762000258620001fb565b5b50919050565b60008190508160005260206000209050919050565b60006020601f8301049050919050565b600082821b905092915050565b600060088302620002c37fffffffffffffffffffffffffffffffffffffffffffffffffffffffffffffffff8262000284565b620002cf868362000284565b95508019841693508086168417925050509392505050565b6000819050919050565b6000819050919050565b60006200031c620003166200031084620002e7565b620002f1565b620002e7565b9050919050565b6000819050919050565b6200033883620002fb565b62000350620003478262000323565b84845462000291565b825550505050565b600090565b6200036762000358565b620003748184846200032d565b505050565b5b818110156200039c57620003906000826200035d565b6001810190506200037a565b5050565b601f821115620003eb57620003b5816200025f565b620003c08462000274565b81016020851015620003d0578190505b620003e8620003df8562000274565b83018262000379565b50505b505050565b600082821c905092915050565b60006200041060001984600802620003f0565b1980831691505092915050565b60006200042b8383620003fd565b9150826002028217905092915050565b6200044682620001c1565b67ffffffffffffffff811115620004625762000461620001cc565b5b6200046e82546200022a565b6200047b828285620003a0565b600060209050601f831160018114620004b357600084156200049e578287015190505b620004aa85826200041d565b8655506200051a565b601f198416620004c3866200025f565b60005b82811015620004ed57848901518255600182019150602085019450602081019050620004c6565b868310156200050d578489015162000509601f891682620003fd565b8355505b6001600288020188555050505b505050505050565b600082825260208201905092915050565b60005b838110156200055357808201518184015260208101905062000536565b60008484015250505050565b6000601f19601f8301169050919050565b60006200057d82620001c1565b62000589818562000522565b93506200059b81856020860162000533565b620005a6816200055f565b840191505092915050565b60006020820190508181036000830152620005cd818462000570565b905092915050565b61255a80620005e56000396000f3fe608060405234801561001057600080fd5b50600436106100ea5760003560e01c806370a082311161008c578063a22cb46511610066578063a22cb4651461025b578063b88d4fde14610277578063c87b56dd14610293578063e985e9c5146102c3576100ea565b806370a08231146101f1578063926427441461022157806395d89b411461023d576100ea565b8063095ea7b3116100c8578063095ea7b31461016d57806323b872dd1461018957806342842e0e146101a55780636352211e146101c1576100ea565b806301ffc9a7146100ef57806306fdde031461011f578063081812fc1461013d575b600080fd5b610109600480360381019061010491906117b0565b6102f3565b60405161011691906117f8565b60405180910390f35b6101276103d5565b60405161013491906118a3565b60405180910390f35b610157600480360381019061015291906118fb565b610467565b6040516101649190611969565b60405180910390f35b610187600480360381019061018291906119b0565b6104ad565b005b6101a3600480360381019061019e91906119f0565b6105c4565b005b6101bf60048036038101906101ba91906119f0565b610624565b005b6101db60048036038101906101d691906118fb565b610644565b6040516101e89190611969565b60405180910390f35b61020b60048036038101906102069190611a43565b6106ca565b6040516102189190611a7f565b60405180910390f35b61023b600480360381019061023691906118fb565b610781565b005b610245610798565b60405161025291906118a3565b60405180910390f35b61027560048036038101906102709190611ac6565b61082a565b005b610291600480360381019061028c9190611c3b565b610840565b005b6102ad60048036038101906102a891906118fb565b6108a2565b6040516102ba91906118a3565b60405180910390f35b6102dd60048036038101906102d89190611cbe565b6109b9565b6040516102ea91906117f8565b60405180910390f35b60007f80ac58cd000000000000000000000000000000000000000000000000000000007bffffffffffffffffffffffffffffffffffffffffffffffffffffffff1916827bffffffffffffffffffffffffffffffffffffffffffffffffffffffff191614806103be57507f5b5e139f000000000000000000000000000000000000000000000000000000007bffffffffffffffffffffffffffffffffffffffffffffffffffffffff1916827bffffffffffffffffffffffffffffffffffffffffffffffffffffffff1916145b806103ce57506103cd82610ae6565b5b9050919050565b6060600080546103e490611d2d565b80601f016020809104026020016040519081016040528092919081815260200182805461041090611d2d565b801561045d5780601f106104325761010080835404028352916020019161045d565b820191906000526020600020905b81548152906001019060200180831161044057829003601f168201915b5050505050905090565b600061047282610b50565b6004600083815260200190815260200160002060009054906101000a900473ffffffffffffffffffffffffffffffffffffffff169050919050565b60006104b882610644565b90508073ffffffffffffffffffffffffffffffffffffffff168373ffffffffffffffffffffffffffffffffffffffff1603610528576040517f08c379a000000000000000000000000000000000000000000000000000000000815260040161051f90611dd0565b60405180910390fd5b8073ffffffffffffffffffffffffffffffffffffffff16610547610b9b565b73ffffffffffffffffffffffffffffffffffffffff161480610576575061057581610570610b9b565b6109b9565b5b6105b5576040517f08c379a00000000000000000000000000000000000000000000000000000000081526004016105ac90611e62565b60405180910390fd5b6105bf8383610ba3565b505050565b6105d56105cf610b9b565b82610c5c565b610614576040517f08c379a000000000000000000000000000000000000000000000000000000000815260040161060b90611ef4565b60405180910390fd5b61061f838383610cf1565b505050565b61063f83838360405180602001604052806000815250610840565b505050565b60008061065083610fea565b9050600073ffffffffffffffffffffffffffffffffffffffff168173ffffffffffffffffffffffffffffffffffffffff16036106c1576040517f08c379a00000000000000000000000000000000000000000000000000000000081526004016106b890611f60565b60405180910390fd5b80915050919050565b60008073ffffffffffffffffffffffffffffffffffffffff168273ffffffffffffffffffffffffffffffffffffffff160361073a576040517f08c379a000000000000000000000000000000000000000000000000000000000815260040161073190611ff2565b60405180910390fd5b600360008373ffffffffffffffffffffffffffffffffffffffff1673ffffffffffffffffffffffffffffffffffffffff168152602001908152602001600020549050919050565b61078b3382611027565b610794816108a2565b5050565b6060600180546107a790611d2d565b80601f01602080910402602001604051908101604052809291908181526020018280546107d390611d2d565b80156108205780601f106107f557610100808354040283529160200191610820565b820191906000526020600020905b81548152906001019060200180831161080357829003601f168201915b5050505050905090565b61083c610835610b9b565b8383611045565b5050565b61085161084b610b9b565b83610c5c565b610890576040517f08c379a000000000000000000000000000000000000000000000000000000000815260040161088790611ef4565b60405180910390fd5b61089c848484846111b1565b50505050565b60606108ad8261120d565b6108b657600080fd5b6108d960405180606001604052806025815260200161248260259139833361124e565b60008203610901576040518060600160405280602a815260200161242e602a913990506109b4565b60018203610929576040518060600160405280602a81526020016124d1602a913990506109b4565b60028203610951576040518060600160405280602a81526020016124fb602a913990506109b4565b60038203610979576040518060600160405280602a81526020016124a7602a913990506109b4565b600482036109a1576040518060600160405280602a8152602001612458602a913990506109b4565b6040518060200160405280600081525090505b919050565b6000600560008473ffffffffffffffffffffffffffffffffffffffff1673ffffffffffffffffffffffffffffffffffffffff16815260200190815260200160002060008373ffffffffffffffffffffffffffffffffffffffff1673ffffffffffffffffffffffffffffffffffffffff16815260200190815260200160002060009054906101000a900460ff16905092915050565b610ae381604051602401610a6191906118a3565b6040516020818303038152906040527f41304fac000000000000000000000000000000000000000000000000000000007bffffffffffffffffffffffffffffffffffffffffffffffffffffffff19166020820180517bffffffffffffffffffffffffffffffffffffffffffffffffffffffff83818316178352505050506112ed565b50565b60007f01ffc9a7000000000000000000000000000000000000000000000000000000007bffffffffffffffffffffffffffffffffffffffffffffffffffffffff1916827bffffffffffffffffffffffffffffffffffffffffffffffffffffffff1916149050919050565b610b598161120d565b610b98576040517f08c379a0000000000000000000000000000000000000000000000000000000008152600401610b8f90611f60565b60405180910390fd5b50565b600033905090565b816004600083815260200190815260200160002060006101000a81548173ffffffffffffffffffffffffffffffffffffffff021916908373ffffffffffffffffffffffffffffffffffffffff160217905550808273ffffffffffffffffffffffffffffffffffffffff16610c1683610644565b73ffffffffffffffffffffffffffffffffffffffff167f8c5be1e5ebec7d5bd14f71427d1e84f3dd0314c0f7b2291e5b200ac8c7c3b92560405160405180910390a45050565b600080610c6883610644565b90508073ffffffffffffffffffffffffffffffffffffffff168473ffffffffffffffffffffffffffffffffffffffff161480610caa5750610ca981856109b9565b5b80610ce857508373ffffffffffffffffffffffffffffffffffffffff16610cd084610467565b73ffffffffffffffffffffffffffffffffffffffff16145b91505092915050565b8273ffffffffffffffffffffffffffffffffffffffff16610d1182610644565b73ffffffffffffffffffffffffffffffffffffffff1614610d67576040517f08c379a0000000000000000000000000000000000000000000000000000000008152600401610d5e90612084565b60405180910390fd5b600073ffffffffffffffffffffffffffffffffffffffff168273ffffffffffffffffffffffffffffffffffffffff1603610dd6576040517f08c379a0000000000000000000000000000000000000000000000000000000008152600401610dcd90612116565b60405180910390fd5b610de38383836001611316565b8273ffffffffffffffffffffffffffffffffffffffff16610e0382610644565b73ffffffffffffffffffffffffffffffffffffffff1614610e59576040517f08c379a0000000000000000000000000000000000000000000000000000000008152600401610e5090612084565b60405180910390fd5b6004600082815260200190815260200160002060006101000a81549073ffffffffffffffffffffffffffffffffffffffff02191690556001600360008573ffffffffffffffffffffffffffffffffffffffff1673ffffffffffffffffffffffffffffffffffffffff168152602001908152602001600020600082825403925050819055506001600360008473ffffffffffffffffffffffffffffffffffffffff1673ffffffffffffffffffffffffffffffffffffffff16815260200190815260200160002060008282540192505081905550816002600083815260200190815260200160002060006101000a81548173ffffffffffffffffffffffffffffffffffffffff021916908373ffffffffffffffffffffffffffffffffffffffff160217905550808273ffffffffffffffffffffffffffffffffffffffff168473ffffffffffffffffffffffffffffffffffffffff167fddf252ad1be2c89b69c2b068fc378daa952ba7f163c4a11628f55a4df523b3ef60405160405180910390a4610fe5838383600161131c565b505050565b60006002600083815260200190815260200160002060009054906101000a900473ffffffffffffffffffffffffffffffffffffffff169050919050565b611041828260405180602001604052806000815250611322565b5050565b8173ffffffffffffffffffffffffffffffffffffffff168373ffffffffffffffffffffffffffffffffffffffff16036110b3576040517f08c379a00000000000000000000000000000000000000000000000000000000081526004016110aa90612182565b60405180910390fd5b80600560008573ffffffffffffffffffffffffffffffffffffffff1673ffffffffffffffffffffffffffffffffffffffff16815260200190815260200160002060008473ffffffffffffffffffffffffffffffffffffffff1673ffffffffffffffffffffffffffffffffffffffff16815260200190815260200160002060006101000a81548160ff0219169083151502179055508173ffffffffffffffffffffffffffffffffffffffff168373ffffffffffffffffffffffffffffffffffffffff167f17307eab39ab6107e8899845ad3d59bd9653f200f220920489ca2b5937696c31836040516111a491906117f8565b60405180910390a3505050565b6111bc848484610cf1565b6111c88484848461137d565b611207576040517f08c379a00000000000000000000000000000000000000000000000000000000081526004016111fe90612214565b60405180910390fd5b50505050565b60008073ffffffffffffffffffffffffffffffffffffffff1661122f83610fea565b73ffffffffffffffffffffffffffffffffffffffff1614159050919050565b6112e883838360405160240161126693929190612234565b6040516020818303038152906040527f1c7ec448000000000000000000000000000000000000000000000000000000007bffffffffffffffffffffffffffffffffffffffffffffffffffffffff19166020820180517bffffffffffffffffffffffffffffffffffffffffffffffffffffffff83818316178352505050506112ed565b505050565b60008151905060006a636f6e736f6c652e6c6f679050602083016000808483855afa5050505050565b50505050565b50505050565b61132c8383611504565b611339600084848461137d565b611378576040517f08c379a000000000000000000000000000000000000000000000000000000000815260040161136f90612214565b60405180910390fd5b505050565b600061139e8473ffffffffffffffffffffffffffffffffffffffff16611721565b156114f7578373ffffffffffffffffffffffffffffffffffffffff1663150b7a026113c7610b9b565b8786866040518563ffffffff1660e01b81526004016113e994939291906122c7565b6020604051808303816000875af192505050801561142557506040513d601f19601f820116820180604052508101906114229190612328565b60015b6114a7573d8060008114611455576040519150601f19603f3d011682016040523d82523d6000602084013e61145a565b606091505b50600081510361149f576040517f08c379a000000000000000000000000000000000000000000000000000000000815260040161149690612214565b60405180910390fd5b805181602001fd5b63150b7a0260e01b7bffffffffffffffffffffffffffffffffffffffffffffffffffffffff1916817bffffffffffffffffffffffffffffffffffffffffffffffffffffffff1916149150506114fc565b600190505b949350505050565b600073ffffffffffffffffffffffffffffffffffffffff168273ffffffffffffffffffffffffffffffffffffffff1603611573576040517f08c379a000000000000000000000000000000000000000000000000000000000815260040161156a906123a1565b60405180910390fd5b61157c8161120d565b156115bc576040517f08c379a00000000000000000000000000000000000000000000000000000000081526004016115b39061240d565b60405180910390fd5b6115ca600083836001611316565b6115d38161120d565b15611613576040517f08c379a000000000000000000000000000000000000000000000000000000000815260040161160a9061240d565b60405180910390fd5b6001600360008473ffffffffffffffffffffffffffffffffffffffff1673ffffffffffffffffffffffffffffffffffffffff16815260200190815260200160002060008282540192505081905550816002600083815260200190815260200160002060006101000a81548173ffffffffffffffffffffffffffffffffffffffff021916908373ffffffffffffffffffffffffffffffffffffffff160217905550808273ffffffffffffffffffffffffffffffffffffffff16600073ffffffffffffffffffffffffffffffffffffffff167fddf252ad1be2c89b69c2b068fc378daa952ba7f163c4a11628f55a4df523b3ef60405160405180910390a461171d60008383600161131c565b5050565b6000808273ffffffffffffffffffffffffffffffffffffffff163b119050919050565b6000604051905090565b600080fd5b600080fd5b60007fffffffff0000000000000000000000000000000000000000000000000000000082169050919050565b61178d81611758565b811461179857600080fd5b50565b6000813590506117aa81611784565b92915050565b6000602082840312156117c6576117c561174e565b5b60006117d48482850161179b565b91505092915050565b60008115159050919050565b6117f2816117dd565b82525050565b600060208201905061180d60008301846117e9565b92915050565b600081519050919050565b600082825260208201905092915050565b60005b8381101561184d578082015181840152602081019050611832565b60008484015250505050565b6000601f19601f8301169050919050565b600061187582611813565b61187f818561181e565b935061188f81856020860161182f565b61189881611859565b840191505092915050565b600060208201905081810360008301526118bd818461186a565b905092915050565b6000819050919050565b6118d8816118c5565b81146118e357600080fd5b50565b6000813590506118f5816118cf565b92915050565b6000602082840312156119115761191061174e565b5b600061191f848285016118e6565b91505092915050565b600073ffffffffffffffffffffffffffffffffffffffff82169050919050565b600061195382611928565b9050919050565b61196381611948565b82525050565b600060208201905061197e600083018461195a565b92915050565b61198d81611948565b811461199857600080fd5b50565b6000813590506119aa81611984565b92915050565b600080604083850312156119c7576119c661174e565b5b60006119d58582860161199b565b92505060206119e6858286016118e6565b9150509250929050565b600080600060608486031215611a0957611a0861174e565b5b6000611a178682870161199b565b9350506020611a288682870161199b565b9250506040611a39868287016118e6565b9150509250925092565b600060208284031215611a5957611a5861174e565b5b6000611a678482850161199b565b91505092915050565b611a79816118c5565b82525050565b6000602082019050611a946000830184611a70565b92915050565b611aa3816117dd565b8114611aae57600080fd5b50565b600081359050611ac081611a9a565b92915050565b60008060408385031215611add57611adc61174e565b5b6000611aeb8582860161199b565b9250506020611afc85828601611ab1565b9150509250929050565b600080fd5b600080fd5b7f4e487b7100000000000000000000000000000000000000000000000000000000600052604160045260246000fd5b611b4882611859565b810181811067ffffffffffffffff82111715611b6757611b66611b10565b5b80604052505050565b6000611b7a611744565b9050611b868282611b3f565b919050565b600067ffffffffffffffff821115611ba657611ba5611b10565b5b611baf82611859565b9050602081019050919050565b82818337600083830152505050565b6000611bde611bd984611b8b565b611b70565b905082815260208101848484011115611bfa57611bf9611b0b565b5b611c05848285611bbc565b509392505050565b600082601f830112611c2257611c21611b06565b5b8135611c32848260208601611bcb565b91505092915050565b60008060008060808587031215611c5557611c5461174e565b5b6000611c638782880161199b565b9450506020611c748782880161199b565b9350506040611c85878288016118e6565b925050606085013567ffffffffffffffff811115611ca657611ca5611753565b5b611cb287828801611c0d565b91505092959194509250565b60008060408385031215611cd557611cd461174e565b5b6000611ce38582860161199b565b9250506020611cf48582860161199b565b9150509250929050565b7f4e487b7100000000000000000000000000000000000000000000000000000000600052602260045260246000fd5b60006002820490506001821680611d4557607f821691505b602082108103611d5857611d57611cfe565b5b50919050565b7f4552433732313a20617070726f76616c20746f2063757272656e74206f776e6560008201527f7200000000000000000000000000000000000000000000000000000000000000602082015250565b6000611dba60218361181e565b9150611dc582611d5e565b604082019050919050565b60006020820190508181036000830152611de981611dad565b9050919050565b7f4552433732313a20617070726f76652063616c6c6572206973206e6f7420746f60008201527f6b656e206f776e6572206f7220617070726f76656420666f7220616c6c000000602082015250565b6000611e4c603d8361181e565b9150611e5782611df0565b604082019050919050565b60006020820190508181036000830152611e7b81611e3f565b9050919050565b7f4552433732313a2063616c6c6572206973206e6f7420746f6b656e206f776e6560008201527f72206f7220617070726f76656400000000000000000000000000000000000000602082015250565b6000611ede602d8361181e565b9150611ee982611e82565b604082019050919050565b60006020820190508181036000830152611f0d81611ed1565b9050919050565b7f4552433732313a20696e76616c696420746f6b656e2049440000000000000000600082015250565b6000611f4a60188361181e565b9150611f5582611f14565b602082019050919050565b60006020820190508181036000830152611f7981611f3d565b9050919050565b7f4552433732313a2061646472657373207a65726f206973206e6f74206120766160008201527f6c6964206f776e65720000000000000000000000000000000000000000000000602082015250565b6000611fdc60298361181e565b9150611fe782611f80565b604082019050919050565b6000602082019050818103600083015261200b81611fcf565b9050919050565b7f4552433732313a207472616e736665722066726f6d20696e636f72726563742060008201527f6f776e6572000000000000000000000000000000000000000000000000000000602082015250565b600061206e60258361181e565b915061207982612012565b604082019050919050565b6000602082019050818103600083015261209d81612061565b9050919050565b7f4552433732313a207472616e7366657220746f20746865207a65726f2061646460008201527f7265737300000000000000000000000000000000000000000000000000000000602082015250565b600061210060248361181e565b915061210b826120a4565b604082019050919050565b6000602082019050818103600083015261212f816120f3565b9050919050565b7f4552433732313a20617070726f766520746f2063616c6c657200000000000000600082015250565b600061216c60198361181e565b915061217782612136565b602082019050919050565b6000602082019050818103600083015261219b8161215f565b9050919050565b7f4552433732313a207472616e7366657220746f206e6f6e20455243373231526560008201527f63656976657220696d706c656d656e7465720000000000000000000000000000602082015250565b60006121fe60328361181e565b9150612209826121a2565b604082019050919050565b6000602082019050818103600083015261222d816121f1565b9050919050565b6000606082019050818103600083015261224e818661186a565b905061225d6020830185611a70565b61226a604083018461195a565b949350505050565b600081519050919050565b600082825260208201905092915050565b600061229982612272565b6122a3818561227d565b93506122b381856020860161182f565b6122bc81611859565b840191505092915050565b60006080820190506122dc600083018761195a565b6122e9602083018661195a565b6122f66040830185611a70565b8181036060830152612308818461228e565b905095945050505050565b60008151905061232281611784565b92915050565b60006020828403121561233e5761233d61174e565b5b600061234c84828501612313565b91505092915050565b7f4552433732313a206d696e7420746f20746865207a65726f2061646472657373600082015250565b600061238b60208361181e565b915061239682612355565b602082019050919050565b600060208201905081810360008301526123ba8161237e565b9050919050565b7f4552433732313a20746f6b656e20616c7265616479206d696e74656400000000600082015250565b60006123f7601c8361181e565b9150612402826123c1565b602082019050919050565b60006020820190508181036000830152612426816123ea565b905091905056fe68747470733a2f2f6170692e6e706f696e742e696f2f666637313837653136663235623030336236313268747470733a2f2f6170692e6e706f696e742e696f2f3730333637313531653861653733626333633861416e204e465420772f20494420257320686173206265656e206d696e74656420746f20257368747470733a2f2f6170692e6e706f696e742e696f2f653237333537363465363331646163363435306368747470733a2f2f6170692e6e706f696e742e696f2f363461383361643630336162373766346563633468747470733a2f2f6170692e6e706f696e742e696f2f3763636339663165663765393866396665643336a2646970667358221220b072b117f2760ba2dadcb07c0fe7419c3e42351d2e47e41694738890de4cac2164736f6c63430008110033",
  "linkReferences": {},
  "deployedLinkReferences": {}
}